:0200000460009A
:1000000000000120910100007F0300008103000037
:100010008303000085030000870300000000000048
:10002000000000000000000000000000714D000012
:100030008B030000000000004D4E00008D4E0000BC
:1000400091030000930300001528000039280000E8
:10005000413500009B0300009D0300006535000052
:10006000A1030000A3030000590C00007D0C000058
:10007000A9030000AB030000AD030000AF030000C4
:10008000B1030000B3030000B50300002114000019
:10009000B9030000BB030000BD030000BF03000064
:1000A000C1030000C3030000C5030000D9360000EF
:1000B000D1370000CB030000CD030000CF030000C8
:1000C000D1030000D30300003D6D0000D703000002
:1000D000D9030000DB030000DD030000DF030000A4
:1000E000E1030000E3030000E5030000E703000074
:1000F000E9030000EB030000ED030000EF03000044
:10010000F1030000F3030000F5030000F703000013
:10011000F9030000FB030000FD030000FF030000E3
:1001200001040000030400000504000007040000AF
:10013000090400000B0400000D0400000F0400007F
:10014000110400001304000015040000170400004F
:10015000190400001B0400001D0400001F0400001F
:1001600021040000230400002504000027040000EF
:10017000290400002B0400002D0400002F040000BF
:100180003104000033040000000000000000000003
:100190004FF0000BDFF8BE020068DFF8B612096806
:1001A00001F0030100F01C00142801D14BF0020BF8
:1001B000002901D04BF0010BBBF1000F05D0A7487F
:1001C000A749DFF8722200F09FF8A64880470BF09D
:1001D000020ABAF1000F0CD0DFF86E02DFF86E12DF
:1001E00002680B680FB44FF000024FF0FF0302608B
:1001F0000B609D484FF000024FF00103022808D128
:10020000DFF83A120A60DFF83E120A60DFF83212B5
:100210000B60012808D1DFF82A120A60DFF82612E5
:100220000A60DFF81A120B609048002809D1904844
:100230009049914A00F030F890489149914A00F075
:100240002BF891489149924A00F026F8914892493A
:10025000DFF8E22100F058F8BBF1000F10D08F4812
:100260008F49DFF8D62100F04FF80BF0020ABAF1FF
:10027000000F05D00FBC02600B6000BFAFF3008021
:10028000DFF820020FF2030E00474FF000004FF09E
:100290000001DFF814F2FEE72DE9F841884225D08D
:1002A000B2EB010200D5FEE740EA010313F00303BD
:1002B00002D000F01DF819E04FF000039046121133
:1002C000F7D09A421CBFF0C8F0C103F10103F8D186
:1002D00008F00F08B8F1000F08D004780C7000F196
:1002E000010001F10101B8F10108F6D1BDE8F88182
:1002F00008B54FF0000303780B7000F1010001F125
:100300000101013AF7D108BD884237D000F0030659
:10031000002E14D04FF00405A5EB06044FF008079B
:1003200007FB06F8914669FA08F9002C07D080F817
:10033000009069FA07F900F10100013CF5E74FF080
:1003400000060F46091A88460911914614461546BB
:10035000B14206D018BFA0E8340206F10106B1424E
:10036000F8D108F00F08B8F1000F07D002704FEA7B
:10037000322200F10100B8F10108F4E77047FEE70E
:10038000FEE7FEE7FEE7FEE7FEE7FEE7FEE7FEE745
:10039000FEE7FEE7FEE7FEE7FEE7FEE7FEE7FEE735
:1003A000FEE7FEE7FEE7FEE7FEE7FEE7FEE7FEE725
:1003B000FEE7FEE7FEE7FEE7FEE7FEE7FEE7FEE715
:1003C000FEE7FEE7FEE7FEE7FEE7FEE7FEE7FEE705
:1003D000FEE7FEE7FEE7FEE7FEE7FEE7FEE7FEE7F5
:1003E000FEE7FEE7FEE7FEE7FEE7FEE7FEE7FEE7E5
:1003F000FEE7FEE7FEE7FEE7FEE7FEE7FEE7FEE7D5
:10040000FEE7FEE7FEE7FEE7FEE7FEE7FEE7FEE7C4
:10041000FEE7FEE7FEE7FEE7FEE7FEE7FEE7FEE7B4
:10042000FEE7FEE7FEE7FEE7FEE7FEE7FEE7FEE7A4
:10043000FEE7FEE7704700000000A2A2A2A2008033
:100440000340088003401080034030800340348024
:1004500003403880034018080240000000F00020EC
:1004600000000120AD0400000000000001000000B9
:100470000000006000000000900100000007006024
:1004800000070000E0830000E0830060000000201F
:10049000C0000020C0000020507E0020507E0020C0
:1004A00000F0002089710000516D000080B500AFA0
:1004B00000F0F8F8044A044B5B6943F4007353619D
:1004C000FFF7B8FF00BF80BD00ED00E080B588B049
:1004D00000AF304BD3F8983003F08063FB61FB69C9
:1004E000002B4CD12B4BD3F8983003F48053BB61D5
:1004F000BB69002B15D1284B284A1A60284B274A84
:100500001A60284B254A1A60274B284A1A60284B44
:10051000224A1A60274B214A1A60274B1F4A1A6049
:1005200034E0264A3B1D92E8030083E80300194BA0
:10053000D3F89C309B0903F007037B613A1D7B696C
:1005400013441B78FB74FB7C012B0AD0022B0DD0CB
:10055000002B0FD100F036F8F860F86800F050F882
:1005600014E04FF4004000F04BF80FE0144800F0A6
:1005700047F80BE0124800F043F800BF06E000F037
:1005800021F8F860F86800F03BF8FFE700BF20377B
:10059000BD4680BD008003403000002000E1F5052D
:1005A00034000020380000203C00002040787D010D
:1005B000400000204400002048000020C4820000C9
:1005C00040420F0080B483B000AF0A4BD3F85031E3
:1005D00003F004033B603B68002B02D1064B7B60B9
:1005E00001E0064B7B607B6818460C37BD4680BC3B
:1005F000704700BF0080034040787D0180F0FA0220
:1006000080B483B000AF78600C4A7B6813600C4AFA
:100610007B6813600B4A7B6813600B4B0B4A1A60B4
:100620000B4A7B6813600B4A7B6813600A4A7B683D
:10063000136000BF0C37BD4680BC704730000020FF
:1006400034000020380000203C00002040787D016C
:1006500040000020440000204800002080B483B007
:1006600000AF0E4BD3F84C313B603B684FF60202B3
:10067000934203D00A4A934203D005E001237B60F2
:1006800005E002237B6002E000237B6000BF7B6803
:1006900018460C37BD4680BC704700BF0080034041
:1006A00002F8010080B582B000AFFFF7D7FF786095
:1006B0007B68012B00D002E000F006F800BF00BF0D
:1006C0000837BD4680BD000080B400AF094A094B21
:1006D000D3F8983043F48073C2F89830054A054B3C
:1006E000D3F8983023F08063C2F8983000BFBD463D
:1006F00080BC704700800340000000000000000044
:1007000010B5054C237833B9044B13B10448AFF34B
:1007100000800123237010BDC000002000000000F5
:10072000C08300000C4B43B10C4810B50C49AFF32B
:1007300000800C48036823B910BD0A48036833B928
:100740007047094B002BF7D0BDE810401847064B07
:10075000002BF5D0184700BF00000000C083000048
:10076000C40000200000002000000000EFF3108013
:1007700072B6704780F31088704701607047006858
:1007800070470EB503FA01F303EA020301686FEA4A
:10079000020201EA020141EA030101600EBD0068A4
:1007A00000EA020020FA01F07047018070470088DB
:1007B00070470EB503FA01F303EA020301886FEAFA
:1007C000020201EA020141EA030101800EBD008834
:1007D00000EA020020FA01F07047017070470078CB
:1007E00070470EB503FA01F303EA020301786FEADA
:1007F000020201EA020141EA030101700EBD007824
:1008000000EA020020FA01F07047000080B483B0D3
:1008100000AF0346FB71084997F907305B09FA7985
:1008200002F01F02012000FA02F241F8232000BF6B
:100830000C37BD4680BC704700E100E080B483B057
:1008400000AF0346FB71094997F907305B09FA7954
:1008500002F01F02012000FA02F2603341F8232067
:1008600000BF0C37BD4680BC704700BF00E100E010
:1008700080B483B000AF78600B46FB707B6803F0F8
:1008800070427B685B0123F07E4323F01F03134318
:10089000FA789200134403F100731A46012313609F
:1008A00000BF0C37BD4680BC704780B483B000AF3A
:1008B00078600B46FB707B6803F070427B685B01DD
:1008C00023F07E4323F01F031343FA78920013446E
:1008D00003F100731A460023136000BF0C37BD46B6
:1008E00080BC704780B483B000AF78600B46FB706B
:1008F0007B6803F070427B685B0123F07E4323F04A
:100900001F031343FA789200134403F100731B682A
:10091000DBB218460C37BD4680BC704780B584B04A
:1009200000AFF860B9601346FB71FB68144A93424C
:1009300004D0FB68134A934200D000BEFB791A46EC
:10094000B968F86800F052FAFB681B68303303217D
:100950001846FFF7AAFFFB681B68343302211846CC
:10096000FFF7A3FFFB681B68383300211846FFF729
:100970009CFFFB68044A5A6200BF1037BD4680BD29
:10098000587B0020187B0020C911000080B489B07A
:1009900000AFF860B9607A600023FB61FB682A4A07
:1009A000934204D0FB68294A934200D000BEBB6842
:1009B000002B00D100BE7B68002B00D100BEFB687D
:1009C000214A934203D0FB68204A934237D1BB6847
:1009D000002B34D07B68002B31D0FB681B681B7D5B
:1009E000FB74FB685A7BFB7C1343DAB2FB685A73D7
:1009F000FB7C03F02003002B1ED010237B617B685F
:100A00000F2B01D87B687B610023BB610CE0FB6886
:100A10001B68B968FA690A4412781A70FB690133D5
:100A2000FB61BB690133BB61BA697B699A42EED352
:100A30007A68BB69D31A7B607B68002BCDD100BF7D
:100A40002437BD4680BC7047587B0020187B0020AF
:100A500080B487B000AFF860B9607A6000237B6132
:100A60000023FB74FB68274A934204D0FB68264AA4
:100A7000934200D000BEBB68002B00D100BE7B6853
:100A8000002B00D100BEFB681E4A934203D0FB68D6
:100A90001D4A934230D1BB68002B2DD07B68002BC0
:100AA0002AD0FB681B681B7DFB74FB685A7BFB7CB0
:100AB0001343DAB2FB685A7315E0BA687B691344D2
:100AC000FA6812681278D2B21A707B6901337B61BE
:100AD000FB681B681B7DFB74FB685A7BFB7C134324
:100AE000DAB2FB685A73FB7C03F00103002B03D0DE
:100AF0007A697B689A42E0D37B6918461C37BD4609
:100B000080BC7047587B0020187B002080B582B0E5
:100B100000AF78600B467B807B68234A934204D009
:100B20007B68224A934200D000BE7B884FF6FF725A
:100B3000934200D100BE7B681B4A934203D07B687E
:100B40001A4A93422CD17B884FF6FF72934227D0EA
:100B50007B6893F904301846FFF770FE7B681B68CA
:100B60007A6812681279D1B27A88D2B202F00F0292
:100B7000D2B20A43D2B21A717B681B687A681268D3
:100B800092F82420D1B27A881209D2B20A43D2B2A2
:100B900083F824207B6893F904301846FFF736FE6B
:100BA00000BF0837BD4680BD587B0020187B002061
:100BB00080B584B000AFF860B9601346FB71FB6884
:100BC000234A934204D0FB68224A934200D000BEDD
:100BD000BB68002B00D100BEFB79C02B00D900BE42
:100BE000FB681B4A934203D0FB681A4A93422BD1FD
:100BF000BB68002B28D0FB79C02B25D8FB68BA68CE
:100C00001A62FB681B68FA681268127AD2B252B292
:100C100002F03F0251B297F907200A4352B2D2B212
:100C20001A72FB6893F904301846FFF707FEFB6859
:100C30001B68043300211846FFF71AFEFB6893F97E
:100C400004301846FFF7E2FD00BF1037BD4680BDF7
:100C5000587B0020187B0020684620F007018D4655
:100C600089B500AF044800F0ADF900BFBD46BDE84E
:100C700089408546704700BF587B0020684620F0B9
:100C800007018D4689B500AF044800F09BF900BF0D
:100C9000BD46BDE889408546704700BF187B0020EF
:100CA00080B588B000AF786039607B684B4A93426A
:100CB00004D07B684A4A934200D000BE7B68474A12
:100CC000934204D07B68464A934240F082807B681E
:100CD0003A689A60FFF7FAFB7B68404A934203D177
:100CE000404B1B68FB6102E03F4B1B68FB61FB69EB
:100CF000DA003B68B2FBF3F3BB61BB695B087B6165
:100D00007B699B093B613B699B017A69D31AFB6054
:100D10003B69DB01BA69D21AFB685B00D31AFA6837
:100D20001344FB603B69B3F5803F00D300BE3B69D1
:100D3000B3F5803F4DD23B69012B2AD97B681B68F4
:100D40000C3307211846FFF793FD7B681B683A694F
:100D5000120AD2B21A717B681B683A69D2B21A7051
:100D60007B681B680C3307211846FFF79EFD7B68E4
:100D70001B68303307211846FFF77AFDFB68FF2B0D
:100D800000D900BE7B681B68FA68D2B283F83C20A9
:100D90001FE07B681B680C3307211846FFF768FDCE
:100DA0007B681B683A69120AD2B21A717B681B68A9
:100DB0003A69D2B21A707B681B680C330721184657
:100DC000FFF773FD7B681B68303307211846FFF778
:100DD0006CFD00BF2037BD4680BD00BF587B0020A2
:100DE000187B0020340000203800002080B584B03B
:100DF00000AFF860B9601346FB71FB686D4A93421F
:100E000004D0FB686C4A934200D000BEFB68694A7C
:100E1000934216D1FB684FF080421A60FB680A22A9
:100E20001A71664A654B9B6C43F0800393640A20F9
:100E3000FFF704FD614A614B9B6C23F080039364D0
:100E400014E0FB685E4A1A60FB680B221A715B4A69
:100E50005A4B9B6C43F4807393640B20FFF7EEFCBA
:100E6000564A564B9B6C23F480739364FB681B6853
:100E700000221A71FB681B6800221A72FB681B684B
:100E8000083301211846FFF7F3FCFB681B680833A1
:100E900002211846FFF7ECFCFB681B6808330021B1
:100EA0001846FFF7E5FCFB681B6810330421184661
:100EB000FFF7FBFCFB681B68103305211846FFF7A2
:100EC000F4FCFB681B68343301211846FFF7EDFC86
:100ED000FB681B68343300211846FFF7E6FCFB680B
:100EE0001B68383301211846FFF7DFFCFB681B68DD
:100EF000303305211846FFF7D8FCFB681B683033F8
:100F000006211846FFF7D1FCFB681B683033072128
:100F10001846FFF7CAFCFB681B68383303211846E4
:100F2000FFF7C3FCFB681B68002283F84420FB68C2
:100F30001B68002283F84820FB681B68002283F8A6
:100F40004C20B968F868FFF7ABFEFB681B68FA79BC
:100F50001A73FB68BA689A60FB68FA791A73FB68BF
:100F600000225A61FB6800221A61FB6800229A6124
:100F7000FB6800221A62FB6800225A62FB680022AA
:100F8000DA61FB6800229A62FB680022DA62FB6881
:100F900000221A63FB6800225A63FB6800229A63EE
:100FA000FB680022DA63FB6800225A7300BF103727
:100FB000BD4680BD587B0020187B00200080034088
:100FC0000000014080B584B000AF78607B687C4A47
:100FD000934204D07B687B4A934200D000BE7B687A
:100FE000774A934204D07B68764A934240F0E3808C
:100FF0007B681B681B7ADBB203F00F03FB73FB7B80
:101000000C2B00F2CD8001A252F823F04110000019
:10101000A11100005F100000B91000007D10000059
:10102000A11100009B100000A1110000A1110000FF
:10103000A1110000A1110000A11100007D1000000D
:101040007B689B6A002B00D100BE7B689B6A002BEB
:1010500000F0A8807B689B6A78689847A2E07B686C
:101060005B6A002B00D100BE7B685B6A002B00F03E
:101070009B807B685B6A7868984795E07B681B6A11
:10108000002B00D100BE7B681B6A002B00F08E8015
:101090007B681B6A7868984788E07B68DB69002B6F
:1010A00000D100BE7B68DB69002B00F081807B688B
:1010B000DB69786898477BE07B681B6828330021F0
:1010C0001846FFF70FFC0346002B0CD07B68DB6A49
:1010D000002B00D100BE7B68DB6A002B03D07B684D
:1010E000DB6A786898477B681B68283301211846BB
:1010F000FFF7F8FB0346002B0CD07B681B6B002B23
:1011000000D100BE7B681B6B002B03D07B681B6B80
:10111000786898477B681B68283302211846FFF7D8
:10112000E1FB0346002B0CD07B685B6B002B00D1EE
:1011300000BE7B685B6B002B03D07B685B6B7868C1
:1011400098477B681B68283303211846FFF7CAFBC2
:101150000346002B0CD07B689B6B002B00D100BE9C
:101160007B689B6B002B03D07B689B6B78689847F0
:101170007B681B68283304211846FFF7B3FB03463E
:10118000002B17D07B68DB6B002B00D100BE7B6887
:10119000DB6B002B0ED07B68DB6B7868984709E02F
:1011A00000BE08E000BF06E000BF04E000BF02E0B0
:1011B00000BF00E000BF00BF1037BD4680BD00BFCC
:1011C000587B0020187B002080B586B000AF786087
:1011D0007B68354A934204D07B68344A934200D0FE
:1011E00000BE7B681B69002B00D100BE7B685B6979
:1011F000002B00D100BE7B682B4A934203D07B6852
:101200002A4A93424CD17B681B69002B48D07B68EB
:101210005B69002B44D07B681B681B7DFB737B687C
:101220005A7BFB7B1343DAB27B685A73FB7B03F078
:101230002003002B24D010233B617B685A697B6814
:101240009B69D31ABB60BB680F2B01D8BB683B619D
:1012500000237B6110E07B681B687A6811697A68FB
:1012600092690A4412781A707B689B695A1C7B68E1
:101270009A617B6901337B617A693B699A42EAD35F
:101280007B689A697B685B699A4209D17B68002216
:101290005A617B681B68043301211846FFF705FB80
:1012A00000BF1837BD4680BD587B0020187B00204A
:1012B00080B483B000AF0346FB71084997F907304B
:1012C0005B09FA7902F01F02012000FA02F241F8EC
:1012D000232000BF0C37BD4680BC704700E100E012
:1012E00080B483B000AF0346FB71094997F907301A
:1012F0005B09FA7902F01F02012000FA02F22033A2
:1013000041F8232000BF0C37BD4680BC704700BFAA
:1013100000E100E080B483B000AF0346FB710949EF
:1013200097F907305B09FA7902F01F02012000FAF1
:1013300002F2603341F8232000BF0C37BD4680BC69
:10134000704700BF00E100E080B582B000AF786078
:1013500039601320FFF7C4FF244B00229A6013204A
:10136000FFF7D8FF224A7B681360224B00221A70D5
:10137000214B00221A70214B00221A60204B0022C0
:101380001A80204B00221A601F4B00221A601F4A4D
:101390003B6813601E4B00221A801E4B00221A80ED
:1013A0001D4B00221A601D4B00221A700F4A0F4B72
:1013B0001B6823F0200313600C4A0C4B1B6843F09E
:1013C00010031360094A094B9B6823F001039360E3
:1013D000064A064B9B6843F0020393601320FFF715
:1013E00067FF00BF0837BD4680BD00BF00600140F9
:1013F0000401002000010020DC000020E0000020AB
:10140000E4000020E8000020EC000020F0000020B4
:10141000F4000020F6000020F80000200101002068
:1014200080B582B000AF0F4B5B68FB710D4B9B68C2
:10143000DAB2FB791340FB71FB7903F00203BB7155
:10144000BB79002B01D000F0E5F8FB7903F0010334
:101450007B717B79002B01D000F006F800BF0837C4
:10146000BD4680BD0060014080B584B000AF624BD6
:101470001B78022B3DD0052B68D0012B40F0AA80B1
:101480005E4B1B889BB2002B2FD05D4B1A685B4BC9
:101490001B889BB21946104600F00AFAF860574BB9
:1014A0001B889BB21A46FB689A420FD9534B1B8884
:1014B0009AB2FB689BB2D31A9AB2504B1A80504B27
:1014C0001A68FB6813444E4A136090E04B4B0022AD
:1014D0001A804C4B1B68002B03D0474B02221A701A
:1014E00085E0454B03221A7081E000BE00F0BAF996
:1014F0007DE0444B1B68002B24D0434B1A68414BC2
:101500001B681946104600F0D3F9B8603D4B1B68C4
:10151000BA689A420CD23B4B1A68BB68D31A394A54
:101520001360394B1A68BB681344374A13605EE096
:10153000364A364B9B6823F0010393602E4B0322FF
:101540001A7054E000BE00F08DF950E02D4B1B687E
:10155000002B1BD12E4B1B68002B14D02C4B1B686F
:10156000294898470246274B1A60264B1B68002BD8
:101570000CD1264A254B9B6823F0010393601E4B38
:1015800003221A7002E000BE00F06CF91D4B1B68CC
:10159000002B09D11D4A1D4B9B6823F0010393606A
:1015A000154B03221A7022E0174B1A68154B1B6863
:1015B0001946104600F07CF97860124B1A687B6877
:1015C000D31A104A1360104B1A687B6813440E4AF2
:1015D00013600CE00D4A0D4B9B6823F001039360F0
:1015E000002000F01FF9044B00221A7000BF00BF5A
:1015F0001037BD4680BD00BF01010020E40000207F
:10160000E0000020EC000020E80000200060014025
:10161000FC00002080B584B000AF7C4B1B69FB81CF
:10162000FB8923F4FF4323F07F03BB81FB89FB721B
:10163000774B1B78052B00F2D68001A252F823F0DD
:1016400059160000D3170000D3170000B116000090
:10165000FF160000A7170000BB89002B00F0CA800E
:10166000FB7AF12B06D0FB7ABB72BB7A184600F0EE
:101670004FF9BFE0674B00221A80674B1B68654A31
:10168000128892B21344FA7A1A70624B1B889BB28A
:1016900001339AB25F4B1A805F4B1B685D4A128818
:1016A00092B2134400221A70594B04221A70A1E01E
:1016B000BB89002B00F0A080FB7A7B72574B1B7814
:1016C000DBB27A7A9A4215D1524B00221A80524BE1
:1016D0001B68504A128892B213447A7A1A704D4BA2
:1016E0001B889BB201339AB24A4B1A80484B0422A2
:1016F0001A7081E07B7A184600F00AF97CE0BB8919
:10170000002B06D0FB7A3B723B7A184600F000F9BA
:1017100074E0414B1A683F4B1B889BB2013B13445A
:101720001B78F12B16D13C4B1B683A4A128892B2B7
:101730001344FA7A1A70384B1A68364B1B889BB2DE
:10174000013B13441B78184600F0E2F8304B0022AE
:101750001A7053E02F4B1B889AB2314B1B889A4268
:1017600010D2FB7AFB712C4B1B682A4A128892B26A
:101770001344FA791A70274B1B889BB201339AB233
:10178000244B1A80234B1B889AB2254B1B889A4204
:1017900034D1204B1B889BB2184600F043F81C4BF9
:1017A00000221A702AE0BB89002B0BD11A4B1B6850
:1017B0000133FA7A1A70022000F034F8144B002238
:1017C0001A701EE0FB7ABB71BB79184600F0A0F8D6
:1017D00017E0BB89002B13D0FB7A7B717B7918460D
:1017E00000F096F80CE0002000F01CF8084B0022F6
:1017F0001A7006E000BF04E000BF02E000BF00E096
:1018000000BF00BF1037BD4680BD00BF0060014073
:1018100001010020F6000020F0000020DC00002084
:10182000F400002080B582B000AF0346FB800A4B75
:101830001B68002B0CD0084B1B68084A1268F988FB
:1018400010469847044B00221A60054B00221A707C
:1018500000BF0837BD4680BDF8000020F000002022
:101860000001002080B582B000AF0E4B1B78DBB2C8
:10187000002B13D00C4B1B889BB21846FFF7D2FFEE
:101880000A4A0A4B1B6843F001031360074B1B68AD
:1018900003F001037B607B68002BF7D100BF0837A2
:1018A000BD4680BD00010020F60000200060014020
:1018B00080B485B000AF78603960144A134B1B6860
:1018C00023F0040313600023FB60104B5B6803F0FC
:1018D0000103BB600DE00D497A68FB6813441B7877
:1018E0000B61FB680133FB60084B5B6803F001038D
:1018F000BB60BB68002B03D0FA683B689A42EAD30E
:10190000FB6818461437BD4680BC70470060014034
:1019100080B582B000AF0346FB71064B1B68002BFD
:1019200004D0044B1B68FA791046984700BF08376B
:10193000BD4680BD0401002080B582B000AF786054
:101940000A4A7B6813600A4B00221A80094B002266
:101950001A70094BD3F89830084A136008490948AF
:10196000FFF7F2FC00BF0837BD4680BD0C01002028
:101970000A0100200801002000800340140100201B
:10198000100100208919000080B586B000AF034621
:10199000FB71FB79E02B1DD141F28833FB60304BAA
:1019A000D3F8983003F480537B61FB68013BFB6004
:1019B0007B69002B02D1FB68002BF0D1294B1B68FF
:1019C000002B48D0274B1B68274A5178FA791046DC
:1019D000984740E0FB79E12B1FD141F28833BB608F
:1019E0001F4BD3F8983003F480533B61BB68013B35
:1019F000BB603B69002B02D0BB68002BF0D100F02C
:101A00008BF8184B1B68002B25D0164B1B68164A09
:101A10005178FA79104698471DE0FB79F12B0FD0E9
:101A200097F90730002B02DAFB799F2B08D9FB7955
:101A3000A02B05D0FB79B02B0DD9FB79B72B0AD899
:101A4000084B1B68002B06D0064B1B68064A5178D2
:101A5000FA791046984700BF1837BD4680BD00BFD1
:101A6000008003400C0100201001002080B485B0EC
:101A700000AF03463960FB71FB79062B34D801A215
:101A800052F823F0A11A0000AD1A0000B91A0000A4
:101A9000E91A0000C51A0000D11A0000DD1A000082
:101AA000174BFB603B6804221A7023E0154BFB6068
:101AB0003B6803221A701DE0134BFB603B68052254
:101AC0001A7017E0114BFB603B6803221A7011E09B
:101AD0000F4BFB603B6802221A700BE00D4BFB6062
:101AE0003B6802221A7005E03B6800221A7000234E
:101AF000FB6000BFFB6818461437BD4680BC7047CA
:101B000004000020080000200C0000201400002029
:101B1000180000201C00002080B586B000AF002314
:101B2000FB7500233B61694BD3F84C319BB2FB60E2
:101B3000FB684FF60202934213D0FB684FF6030294
:101B400093420ED0FB684FF60402934209D0FB6823
:101B50004FF60702934204D0FB684FF60602934209
:101B600005D15A4A5A4B1B68C2F89830A9E0FB6865
:101B70004FF60502934240F0A480564B1B68DBB23F
:101B8000FA1D11461846FFF771FFB860FB79FB7527
:101B900017E04E4BD3F898303B613B6923F01C03B0
:101BA0003B61FB7D013BBA6813441B789B003A699B
:101BB00013433B61454A3B69C2F89830FB7D013BCA
:101BC000FB75FB7D002BE4D1424B5B68DBB2FA1D59
:101BD00011461846FFF74AFFB860FB79FB7517E01E
:101BE0003A4BD3F898303B613B6923F0E0033B610B
:101BF000FB7D013BBA6813441B785B013A691343D0
:101C00003B61324A3B69C2F89830FB7D013BFB7572
:101C1000FB7D002BE4D12F4B9B68DBB2FA1D1146F4
:101C20001846FFF723FFB860FB79FB7517E0274BD9
:101C3000D3F898303B613B6923F460633B61FB7DE3
:101C4000013BBA6813441B785B023A6913433B615A
:101C50001E4A3B69C2F89830FB7D013BFB75FB7D5A
:101C6000002BE4D11B4BDB68DBB2FA1D1146184692
:101C7000FFF7FCFEB860FB79FB7517E0134BD3F858
:101C800098303B613B6923F460133B61FB7D013B72
:101C9000BA6813441B78DB043A6913433B610B4A6F
:101CA0003B69C2F89830FB7D013BFB75FB7D002B47
:101CB000E4D1064A054BD3F8983023F48053C2F898
:101CC000983000BF1837BD4680BD00BF008003407C
:101CD000140100201801002080B483B000AF034637
:101CE000FB71084997F907305B09FA7902F01F0286
:101CF000012000FA02F241F8232000BF0C37BD4654
:101D000080BC704700E100E080B483B000AF0346C0
:101D1000FB71094997F907305B09FA7902F01F0254
:101D2000012000FA02F2203341F8232000BF0C37D3
:101D3000BD4680BC704700BF00E100E080B483B0C6
:101D400000AF0346FB71094997F907305B09FA793F
:101D500002F01F02012000FA02F2603341F8232052
:101D600000BF0C37BD4680BC704700BF00E100E0FB
:101D700080B584B000AF78607B68314A934204D06C
:101D80007B68304A934200D000BE7B6893F90430F0
:101D90001846FFF7B9FF84220021786805F032FA6F
:101DA0007B6801225A620023FB810AE0FB897A6882
:101DB0000633DB0013444FF0FF325A60FB890133D6
:101DC000FB81FB89072BF1D97B681D4A934215D112
:101DD0007B681D4A1A607B6802221A711B4A1B4BE2
:101DE0009B6C43F4007393640220FFF7A7FF174A2C
:101DF000164B9B6C23F40073936414E07B68144AC5
:101E00001A607B6803221A71104A104B9B6C43F4D2
:101E1000806393640320FFF791FF0C4A0B4B9B6C8C
:101E200023F4806393647B681B687A681268126885
:101E300022F000421A6000BF1037BD4680BD00BFCF
:101E40001C7C0020987B0020001000400080034094
:101E50000010014080B58AB000AF78607B681B68D5
:101E60001B687B627B681B689B693B627B681B68A5
:101E70005B68FB617B681B689B6ABB617B681B6856
:101E80001B6B7B617B681B685B6B3B617B681B68C2
:101E9000DB69FB607B68354A93421DD17B68344A1D
:101EA0001A607B6802221A71324A324B9B6C43F4EF
:101EB000007393640220FFF741FF2E4A2D4B9B6C69
:101EC00023F4007393647B681B687A681268126855
:101ED00022F000421A601CE07B68274A1A607B6887
:101EE00003221A71234A234B9B6C43F4806393644F
:101EF0000320FFF723FF1F4A1E4B9B6C23F48063D4
:101F000093647B681B687A681268126822F000424A
:101F10001A607B6A23F001037B627B681B687A6A24
:101F20001A607B681B683A6A9A617B681B68FA6969
:101F30005A607B681B687A681268126842F0010276
:101F40001A607B681B68BA699A627B681B687A6949
:101F50001A637B681B683A695A637B681B68FA6876
:101F6000DA6100BF2837BD4680BD00BF1C7C002061
:101F700000100040008003400010014080B586B092
:101F800000AFF8607A603B600B46FB72FB68454A25
:101F9000934204D0FB68444A934200D000BEFB7ACF
:101FA000072B00D900BE97F82030202B00D900BEA7
:101FB0003B68012B00D800BE3B68B3F5007F00D919
:101FC00000BE3B6803F00103002B00D000BEFB689D
:101FD00093F904301846FFF797FEFB68002283F858
:101FE0008020FB681B68FA681268126822F0010200
:101FF0001A60FB681B68FA681268126842F00202F5
:102000001A60FB681B68FA681268126842F00102E5
:102010001A60FB7A072B3AD87B68002B0BD07B68C1
:10202000B3F1007F07D07B68B3F1807F03D07B687A
:10203000B3F1407F0BD1FB7A7A6842F0505242F400
:102040008172F9680633DB000B445A600AE0FB7AC0
:102050007A6842F0405242F48172F9680633DB003C
:102060000B445A60FB7AFA680633DB00134497F896
:1020700020201A723B685B08013B7B61FB7A7A691E
:10208000D1B2FA680633DB0013440A465A72FB6881
:1020900093F904301846FFF71FFE00BF1837BD46FE
:1020A00080BD00BF1C7C0020987B002080B584B0E0
:1020B00000AF78600B46FB707B68364A934204D0D1
:1020C0007B68354A934200D000BE7B681B681B6862
:1020D00003F00203022B00D000BEFB787A680633BF
:1020E000DB0013445B68B3F1FF3F00D100BE7B68A7
:1020F00093F904301846FFF707FE7B681B689B685E
:1021000003F00403FB60FB68002B02D07868FFF744
:10211000A1FE7B681B687A681268126822F00102CF
:102120001A607B681A68FB7879680633DB000B4419
:102130005B6813607B681A68FB7879680633DB009C
:102140000B445B7A93617B681A68FB787968063385
:10215000DB000B441B7A53607B681B687A6812684B
:10216000126842F001021A607B681B687A68126884
:10217000D169FA78012000FA02F20A43DA617B6839
:1021800093F904301846FFF7A7FD00BF1037BD468E
:1021900080BD00BF1C7C0020987B002080B584B0EF
:1021A00000AF78600B46FB707B681C4A934204D0FA
:1021B0007B681B4A934200D000BE7B681B681B688B
:1021C00003F00203022B00D000BE7B6893F90430B9
:1021D0001846FFF799FD7B681B689B6803F00403B2
:1021E000FB60FB68002B02D07868FFF733FE7B684A
:1021F0001B687A681268D169FA78012000FA02F245
:10220000D2430A40DA617B6893F904301846FFF73D
:1022100063FD00BF1037BD4680BD00BF1C7C0020A1
:10222000987B002080B58EB000AFF860B9603B604D
:102230001346FB800023FB8600237B85FB68744AE2
:10224000934204D0FB68734A934200D000BEFB68FF
:102250001B681B6803F00203022B00D000BEFA8843
:10226000B7F8403013447B847B8C002B02D10123D0
:10227000FB6201E07B8CFB62FB681B68FA681268FA
:10228000D26A42F00C02DA62FB681B689B6803F0BA
:102290000403FB61FB69002B02D0F868FFF7DAFD4D
:1022A000FB681B68FA681268126822F001021A6063
:1022B000FB681968FB681B681B6823F47F0222F423
:1022C0007F42FB6A1B0223F07F4323F0FF0313438B
:1022D0000B60FB681B6808225A60FB681B68FA6881
:1022E0001268126842F001021A60FB681B689B6862
:1022F00003F040037B6209E0FB681B681B697B619C
:10230000FB681B689B6803F040037B627B6A002BC1
:10231000F2D00023BB8600237B86BA8EFB889A42CC
:102320000DD2FB681B68BA8EB9680A4412785A61EC
:10233000BB8E0133BB867B8D01337B855FE0BA8E1C
:102340007B8C9A425BD2FB681B6800225A61BB8E71
:102350000133BB867B8D01337B8550E0FB681B68B6
:102360009B6803F040037B627B6A002B1BD1FB68F8
:102370001B681B697B61FA8EFB889A420DD37A8EAB
:10238000B7F840309A4205D27B8E3A6813447A6996
:10239000D2B21A707B8E01337B86FB8E0133FB86B3
:1023A0007B8D013B7B85FB681B689B6803F4807316
:1023B000BB61BB69002B22D17B8D032B1FD8BA8E4A
:1023C000FB889A420DD2FB681B68BA8EB9680A4432
:1023D00012785A61BB8E0133BB867B8D01337B85BE
:1023E0000DE0BA8E7B8C9A4209D2FB681B680022F2
:1023F0005A61BB8E0133BB867B8D01337B85FA8EA0
:102400007B8C9A42AAD300BF3837BD4680BD00BF3F
:102410001C7C0020987B002080B485B000AF7860E1
:102420000023FB600DE07B681B687A6891687A681E
:1024300012690A4412785A617B681B695A1C7B68CE
:102440001A617B681B689B6803F48073002B05D1BD
:102450007B681A697B68DB689A42E4D37B681A69F7
:102460007B68DB689A421BD30DE07B681B687A6847
:1024700051697A68D2690A4412785A617B68DB69CB
:102480005A1C7B68DA617B681B689B6803F4807365
:10249000002B05D17B68DA697B689B699A42E4D39B
:1024A0007B685B6A002B1DD07B681A697B68DB68E0
:1024B0009A4217D37B68DA697B689B699A4211D389
:1024C00006E07B681B6800225A61FB680133FB60F1
:1024D0007B681B689B6803F48073002B02D1FB6848
:1024E0001F2BEED900BF1437BD4680BC704780B5A6
:1024F00084B000AF78607B6893F88030022B15D1F0
:102500000CE07B681B681B69FB607B685B6F002BC2
:1025100004D07B685B6FFA68104698477B681B683D
:102520009B6803F04003002BEBD02FE07B6893F80F
:102530008030012B23D116E07B681B681B69FB6090
:102540007B681A6B7B68DB6A9A4207D27B689A6A5F
:102550007B681B6B1344FA68D2B21A707B681B6BE2
:102560005A1C7B681A637B681B689B6803F04003F6
:10257000002BE1D00AE07B681B681B69FB607B686D
:102580001B689B6803F04003002BF4D000BF10379A
:10259000BD4680BD80B586B000AF78607B681B68A3
:1025A00020337B617B686B4A934204D07B686A4A24
:1025B000934200D000BE7B691B6803F00203002B2E
:1025C0004ED07B6893F88030022B15D10CE07B68ED
:1025D0001B681B69FB607B685B6F002B04D07B680A
:1025E0005B6FFA68104698477B681B689B6803F02E
:1025F0004003002BEBD02FE07B6893F88030012B59
:1026000023D116E07B681B681B69FB607B681A6B33
:102610007B68DB6A9A4207D27B689A6A7B681B6B8D
:102620001344FA68D2B21A707B681B6B5A1C7B6821
:102630001A637B681B689B6803F04003002BE1D0A2
:102640000AE07B681B681B69FB607B681B689B68F2
:1026500003F04003002BF4D07B681B680222DA6091
:102660007B691B6803F00103002B11D07B6893F892
:102670008030022B05D17B681B687A68926F5A61A3
:1026800002E07868FFF7C8FE7B681B680122DA6009
:102690007B691B6803F01003002B20D07868FFF7DC
:1026A00026FF7B681B6A002B0AD07B681B6A7A684E
:1026B000906A7A68126B114698477868FFF7ACFE0B
:1026C0007B6801225A627B681B687A681268926A8A
:1026D00022F010029A627B681B681022DA607B6924
:1026E0001B6803F00403002B0ED07B681B687A681C
:1026F0001268D26A42F00402DA627868FFF7AAFB35
:102700007B681B680422DA607B691B6803F008039E
:10271000002B32D07B681B687A681268D26A42F05C
:102720000802DA627B6893F88030022B16D17B684E
:102730001A687B681B681B6823F47F0323F47F43BC
:1027400043F4807313607B681B687A68926F5A61E8
:102750000FE000BF1C7C0020987B00207B6893F872
:102760008030012B05D17B6800221A617868FFF761
:1027700053FE7B681B680822DA607B691B6803F0E4
:102780002003002B41D07868FFF7B1FE7B681B6BFC
:102790003B617B681B6A002B17D07B6800225A6262
:1027A0007B6800225A617B6800229A617B68002264
:1027B000DA617B681B681022DA607B681B687A68C4
:1027C0001268926A42F010029A627B6800221A61D3
:1027D0007B681B687A681268D26A42F00C02DA627F
:1027E0007868FFF719FE7B6800221A637B68DB6F4D
:1027F000002B06D07B68DB6F7A68926A39691046D5
:1028000098477B681B682022DA6000BF1837BD46F6
:1028100080BD00BF684620F007018D4689B500AF36
:102820000448FFF7B7FE00BFBD46BDE889408546B6
:10283000704700BF1C7C0020684620F007018D46D1
:1028400089B500AF0448FFF7A5FE00BFBD46BDE84F
:1028500089408546704700BF987B002080B483B0D4
:1028600000AF0346FB71084997F907305B09FA7915
:1028700002F01F02012000FA02F241F8232000BFFB
:102880000C37BD4680BC704700E100E080B483B0E7
:1028900000AF0346FB71094997F907305B09FA79E4
:1028A00002F01F02012000FA02F2203341F8232037
:1028B00000BF0C37BD4680BC704700BF00E100E0A0
:1028C00080B483B000AF0346FB71094997F9073024
:1028D0005B09FA7902F01F02012000FA02F260336C
:1028E00041F8232000BF0C37BD4680BC704700BFB5
:1028F00000E100E080B584B000AF78600B46FB706B
:102900001346BB70BB78FB607B68394A934204D0A6
:102910007B68384A934200D000BE00F0EFFDB860FB
:1029200074220021786804F06DFC7B68304A934281
:1029300018D17B6804225A747B682F4A5A617B68DD
:102940002E4A9A612E4A2E4B9B6C43F4006393648B
:102950000420FFF7B5FF2A4A294B9B6C23F4006340
:10296000936417E07B6807225A747B68254A5A6192
:102970007B68254A9A61224A214B9B6C43F4805321
:1029800093640720FFF79CFF1D4A1D4B9B6C23F4AB
:10299000805393647B689A697B68DA61FB785A009C
:1029A0007B681A607B689B69FA68920802F00102F2
:1029B000DA617B689B69FA68520802F001025A608A
:1029C0007B689B69FA6802F001021A607B685B69A8
:1029D0007A681268D2B21A737B689B6901229A6185
:1029E000B86800F09EFD00BF1037BD4680BD00BF37
:1029F000A07C0020147D0020002000400000044244
:102A000000800340002001400000244280B586B0D1
:102A100000AFF8607A601A460B46FB7213463B81A2
:102A2000FB68304A934204D0FB682F4A934200D09F
:102A300000BE00F063FD7861FB681B7A002B02D1B9
:102A4000FB6801221A72FB68012283F87220FB7A6C
:102A50005A00FB685A60FB680022DA62FB687A68F9
:102A60001A623A89FB685A62FB6800229A62FB6824
:102A7000012283F83C20FB6897F820201A74FB6839
:102A800093F85C30DBB2012B04D1FB68012283F8A0
:102A9000712003E0FB689B6901225A61FB6893F88F
:102AA0007030012B10D1FB689B690022DA60FB6853
:102AB0005B691B79FB74FB7CDBB2FB74FB6893F9ED
:102AC00011301846FFF7FCFEFB6893F911301846E9
:102AD000FFF7C4FE786900F024FD00BF1837BD463B
:102AE00080BD00BFA07C0020147D002080B586B092
:102AF00000AFF8607A601A460B46FB7213463B81C2
:102B0000FB683F4A934204D0FB683E4A934200D0A0
:102B100000BE3B89002B00D100BE7B68002B00D19A
:102B200000BEBB8C002B00D100BE3B6A002B00D145
:102B300000BEBB8C002B5FD03B89002B5CD000F02B
:102B4000DDFC7861FB681B7A002B02D1FB68032255
:102B50001A72FB68032283F87220FB7A5A00FB6822
:102B60005A60FB680022DA62FB687A681A623A8966
:102B7000FB685A62FB6800229A62FB683A6A1A6331
:102B8000BA8CFB685A63FB6800229A63FB680122D7
:102B900083F83C20FB6897F828201A74FB6893F8A8
:102BA0005C30DBB2012B04D1FB68012283F8712079
:102BB00003E0FB689B6901225A61FB6893F870305F
:102BC000012B10D1FB689B690022DA60FB685B690E
:102BD0001B79FB74FB7CDBB2FB74FB6893F911304F
:102BE0001846FFF76DFEFB6893F911301846FFF7A2
:102BF00035FE786900F095FC00BF1837BD4680BDF2
:102C0000A07C0020147D002080B485B000AF7860E7
:102C10007B68094A934204D07B68084A934200D0FB
:102C200000BE7B6893F83C30FB73FB7B184614377F
:102C3000BD4680BC704700BFA07C0020147D0020F2
:102C400080B485B000AF786039607B680B4A9342EE
:102C500004D07B680A4A934200D000BE7B683A6881
:102C60001A647B6893F83C30FB73FB7B012BF8D034
:102C7000FB7B18461437BD4680BC7047A07C002003
:102C8000147D002080B483B000AF78607B6893F837
:102C90006830002B03D07B689B6901229A6000BFDB
:102CA0000C37BD4680BC704790B585B000AF7860EA
:102CB0000123FB737B68E74A934204D07B68E64AB2
:102CC000934200D000BE7B685B691B79FB72FB7A84
:102CD000DBB2083BD02B00F2D78301A252F823F0DD
:102CE0002530000089340000893400008934000058
:102CF00089340000893400008934000089340000E0
:102D00002530000089340000893400008934000037
:102D100089340000893400008934000089340000BF
:102D2000C13000008934000089340000893400007B
:102D3000893400008934000089340000893400009F
:102D4000A330000089340000893400008934000079
:102D5000893400008934000089340000893400007F
:102D6000C13000008934000089340000893400003B
:102D7000893400008934000089340000893400005F
:102D80004731000089340000893400008934000094
:102D9000893400008934000089340000893400003F
:102DA0009930000089340000893400008934000023
:102DB000893400008934000089340000893400001F
:102DC0006531000089340000893400008934000036
:102DD00089340000893400008934000089340000FF
:102DE000A9310000893400008934000089340000D2
:102DF00089340000893400008934000089340000DF
:102E0000C731000089340000893400008934000093
:102E100089340000893400008934000089340000BE
:102E2000FB3100008934000089340000893400003F
:102E3000893400008934000089340000893400009E
:102E40008B3200008934000089340000893400008E
:102E5000893400008934000089340000893400007E
:102E60008332000089340000893400008934000076
:102E7000893400008934000089340000893400005E
:102E80008B3200008934000089340000893400004E
:102E9000893400008934000089340000893400003E
:102EA0008332000089340000893400008934000036
:102EB000893400008934000089340000893400001E
:102EC000C1320000893400008934000089340000D8
:102ED00089340000893400008934000089340000FE
:102EE0005732000089340000893400008934000022
:102EF00089340000893400008934000089340000DE
:102F0000C132000089340000893400008934000097
:102F100089340000893400008934000089340000BD
:102F200057320000893400008934000089340000E1
:102F3000893400008934000089340000893400009D
:102F40001733000089340000893400008934000000
:102F5000893400008934000089340000893400007D
:102F6000D93300008934000089340000893400001E
:102F7000893400008934000089340000893400005D
:102F8000D9330000893400008934000089340000FE
:102F9000893400008934000089340000893400003D
:102FA000D9330000893400008934000089340000DE
:102FB000893400008934000089340000893400001D
:102FC000593400008934000089340000893400003D
:102FD00089340000893400008934000089340000FD
:102FE000593400008934000089340000893400001D
:102FF00089340000893400008934000089340000DD
:1030000089340000893400008934000089340000CC
:1030100089340000893400008934000089340000BC
:10302000B13300007B689B6900225A617B685B6951
:103030007A685268D2B21A727B689B697A68D26ADF
:10304000C3F800217B68DB6A002B07D17B68002274
:103050009A620AE0A07C0020147D00207B68DB6A75
:10306000012B02D17B6800229A637B6893F8713050
:10307000002B03D07B68002283F871207B681A7ACA
:103080007B6893F872309A4200F01D827B6893F857
:1030900072207B681A7216E27B689B6901225A6172
:1030A0001CE27B689B6901221A617B68022283F81B
:1030B0003C207B6800221A727868FFF7E3FD0DE27E
:1030C0007B689A6A7B685B6A9A420CD27B685A6911
:1030D0007B68196A7B689B6A5C1C786884620B4415
:1030E0001B781372FAE17B681B7A032B07D17B688C
:1030F0000122DA627B689B6901225A61EEE17B68FA
:1031000000221A727B681B7C03F00103BB737B688F
:10311000BA7B83F87020BB7B002B07D17B689B694F
:1031200001221A617868FFF7ADFD07E07B6893F92B
:1031300011301846FFF7AAFB0023FB737B680022BF
:1031400083F83C20CAE17B689B6901221A617B6895
:10315000022283F83C207B6800221A727868FFF70D
:1031600091FDBBE17B685B6B012B04D97B689B699C
:1031700001229A60B2E17B685B6B012B04D17B6812
:103180009B6900229A60A9E17B689B6901229A6091
:103190007B689B6901221A617B68002283F83C20CE
:1031A0007B6800221A7299E17B689B6901221A618F
:1031B0007B68022283F83C207B6800221A727868C0
:1031C000FFF760FD8AE17B681A6B7B689B6B581C7C
:1031D0007968886313447A685269127AD2B21A7095
:1031E0007B689A6B7B685B6B013B9A42C0F06D8198
:1031F0007B689B6900229A6067E17B681A6B7B6839
:103200009B6B13447A685269127AD2B21A707B6847
:103210001B7C03F00103BB737B68BA7B83F87020CF
:10322000BB7B002B07D17B689B6901221A61786800
:10323000FFF728FD07E07B6893F911301846FFF788
:1032400025FB0023FB737B6800221A727B68002237
:1032500083F83C2042E17B689B6901229A607B688D
:1032600000221A727B68002283F85C207B6893F846
:103270007130002B00F02B817B689B6901225A6121
:1032800025E17B68012283F871207B6804221A7291
:103290007B6800229A657B680022DA607B689B6904
:1032A0005B69002B07D07B689B6900225A617B68B1
:1032B000012283F871207B68012283F85C200DE1F4
:1032C0007B681B6D002B1AD07B689A6D7B685B6DE9
:1032D0009A4214D27B685B691B7A7B737B681A6D98
:1032E0007B689B6D581C7968886513447A7B1A70DB
:1032F0007B68DB681A027B7B1A447B68DA607B6838
:103300009A6D7B685B6D9A42C0F0E3807B689B6935
:1033100000229A60DDE07B681B7A042B31D17B6848
:103320009A6D7B681B6E9A4203D17B68DA687B6872
:10333000DA647B685B6E002B1ED07B685B6E7A68FC
:10334000116D7A68926D92B27868984703463B7324
:103350003B7B002B07D17868FFF794FC7B689B6967
:1033600001229A6013E07B689B6900229A607B6867
:10337000002283F868200AE07B689B6901229A603A
:1033800005E07B680022DA647868FFF77BFC7B68E5
:10339000002283F85C207B6893F87130002B03D007
:1033A0007B689B6901225A617B6800221A7295E052
:1033B0007B6800221A727B680022DA647B6893F8CB
:1033C0005C30DBB2012B03D17B68022283F85C20E6
:1033D0007868FFF757FC81E0FB7ADBB2A82B16D1A7
:1033E0007B6805221A727B680022DA607B68012202
:1033F00083F85C207B689B695B69002B07D07B6846
:103400009B6900225A617B68012283F871207B68E6
:10341000DA6C7B689B6C9A4204D37B685B69FF2201
:103420001A720BE07B685A697B68596C7B68DB6CAD
:103430005C1C7868C4640B441B7813727B68DA6C7C
:103440007B689B6C9A4246D37B689B6900229A609A
:103450007B680022DA643EE07B680022DA647B68E5
:103460009B6901229A607B68002283F85C207B685C
:1034700093F87130002B03D07B689B6901225A615D
:103480007B6800221A7229E07B689B6900225A61DE
:103490007B6800221A727B680022DA647B6893F8EA
:1034A0003C30DBB2012B03D17B68022283F83C2045
:1034B0007B6893F85C30DBB2012B0ED17B68022273
:1034C00083F85C2009E000BF08E000BF06E000BF11
:1034D00004E000BF02E000BF00E000BFFB7B002B68
:1034E00003D07B689B690022DA607B685B691B798B
:1034F000FB7200BF1437BD4690BD00BF80B485B0DD
:1035000000AFEFF310837B607B68FB600123BB603F
:10351000BB6883F31088FB6818461437BD4680BC2F
:10352000704780B485B000AF78607B68FB60FB6853
:1035300083F3108800BF1437BD4680BC704700007D
:10354000684620F007018D4689B500AF0448FFF7B3
:10355000ABFB00BFBD46BDE889408546704700BF54
:10356000A07C0020684620F007018D4689B500AF99
:103570000448FFF799FB00BFBD46BDE8894085467A
:10358000704700BF147D002090B484B000AFF86095
:10359000B9607A60FB704C484C4B1A68F978134656
:1035A0009B001344DB01034403F5E27319604849AF
:1035B000464B1A6813469B0013449B000B4404338C
:1035C000FA681A604249414B1A6813469B0013443B
:1035D0009B000B440833BA681A603D483B4B19689E
:1035E0003B4C3A4B1A6813469B0013449B00234400
:1035F0000C331B681A0C12040B469B000B449B00F7
:1036000003440C331A607B68B3F5803F0FD97B68A5
:10361000A3F580332F4A1361BB6803F580332D4A2D
:10362000D360FB6803F580332A4A936019E0284889
:10363000264B1A68264C254B19680B469B000B44F9
:103640009B0023440C331B68796889B219431346E5
:103650009B0013449B0003440C3319601D4B002254
:103660001A611B48194B1A68194C184B19680B46FC
:103670009B000B449B0023440C331B6843F4E00184
:1036800013469B0013449B0003440C3319600E49FE
:103690000E4B1A6813469B001344DB010B4403F5E1
:1036A000E07301221A600849084B1A6813469B0010
:1036B0001344DB010B4403F5E67300221A6000BFDC
:1036C0001037BD4690BC70470000284240010020E2
:1036D0000040014028010020684620F007018D4687
:1036E00091B500AF354A364B1B6803F528730121AD
:1036F00042F823103348324B1A68324C304B196869
:103700000B469B000B449B0023440C331B6823F4A3
:10371000E00113469B0013449B0003440C331960E3
:10372000274B1B680133264A1360254B1B68042B6B
:1037300002D1234B00221A60234B1B69002B17D0A8
:10374000224B1B68042B03D1204B00221A6004E09B
:103750001E4B1B6801331D4A13601B4B98681A4BA4
:10376000D968194B1A69184B1B7DFFF70DFF1EE036
:103770001449134B1A6813469B0013449B000B44D7
:103780000C331B6803F4E003002B10D10C4B002218
:103790001A600E4B00221A600B4B01221A700A4B62
:1037A0005B68002B03D0084B5B680120984700BF83
:1037B000BD46BDE891408546704700BF00002842E5
:1037C0004401002000400140280100204001002069
:1037D000684620F007018D4681B583B000AF384BB5
:1037E0001B683B603B6803F470633B603B68002BE5
:1037F0002FD03449344B1A6813469B001344DB0125
:103800000B4403F502731B68002B0AD02F4B0222D6
:103810001A702E4B5B68002B03D02C4B5B68022088
:1038200098472849284B1A6813469B001344DB012C
:103830000B4403F503731B68002B0AD0234B0322B0
:103840001A70224B5B68002B03D0204B5B6803206F
:1038500098471B4B1B683B603B6803F470433B601D
:103860003B68002B0AD0194B04221A70174B5B6877
:10387000002B03D0154B5B680420984700237B6026
:1038800014E010497A6813469B001344DB010B4493
:1038900003F5E47301221A600A4A7B6803F5287372
:1038A000012142F823107B6801337B607B68032B86
:1038B000E7D900BF0C37BD46BDE88140854670475B
:1038C000004001400000284244010020280100205F
:1038D00080B483B000AF0346FB71094997F9073004
:1038E0005B09FA7902F01F02012000FA02F220338C
:1038F00041F8232000BF0C37BD4680BC704700BF95
:1039000000E100E080B483B000AF0346FB710949D9
:1039100097F907305B09FA7902F01F02012000FADB
:1039200002F2603341F8232000BF0C37BD4680BC53
:10393000704700BF00E100E080B582B000AF1A4AD6
:10394000194B9B6C43F480139364174A164B9B6C82
:1039500043F0F073936400237B6012E0134A7B68AA
:10396000134493F900301846FFF7B2FF0F4A7B6803
:10397000134493F900301846FFF7C4FF7B68013306
:103980007B607B681F2BE9D9074A074B9B6C23F0B0
:10399000F0739364044A044B9B6C23F48013936488
:1039A00000BF0837BD4680BD008003406C81000029
:1039B00080B485B000AF03463960FB71FB79FB60D2
:1039C000FB681F2B00D900BEFB681F2B05D8054ADA
:1039D000FB6852F823303A681A6000BF1437BD46BE
:1039E00080BC7047EC80000080B485B000AF034617
:1039F0000A46FB711346BB71FB79FB60FB681F2B0A
:103A000000D900BEFB681F2B18D80F4BD3F88830A5
:103A1000BB600122FB6802FA03F3DB43BA68134080
:103A2000BB60BB7903F00102FB6802FA03F3BA68DA
:103A30001343BB60044ABB68C2F8883000BF143728
:103A4000BD4680BC704700BF0030014080B584B0E7
:103A500000AFF860B9607A603B60FB68BA681A60D2
:103A6000FB681B68083300211846FCF7B6FEFB68AC
:103A70001B680C3300211846FCF7AFFEFB681B687F
:103A800079681846FCF779FE3B68002B00D100BE30
:103A9000FB681B68043339681846FCF76EFEFB6848
:103AA0001B68103300211846FCF767FEFB681B6893
:103AB000183300211846FCF760FEFB681B682033B2
:103AC00000211846FCF759FEFB681B6828330021CB
:103AD0001846FCF752FEFB681B683033002118467D
:103AE000FCF74BFEFB681B68383300211846FCF7D7
:103AF00044FEFB681B68403300211846FCF73DFE7E
:103B0000FB681B68483300211846FCF736FEFB684B
:103B10001B68503300211846FCF72FFEFB681B681A
:103B2000583300211846FCF728FEFB681B686033F9
:103B300000211846FCF721FEFB681B686833002152
:103B40001846FCF71AFEFB681B6870330021184604
:103B5000FCF713FEFB681B68783300211846FCF75E
:103B60000CFEFB681B68803300211846FCF705FE3D
:103B7000FB681B68883300211846FCF7FEFD00BF78
:103B80001037BD4680BD000080B584B000AF7860BE
:103B90000B46FB70FB78002B00D100BEFB78102B8E
:103BA00000D900BEFB78002B32D0FB78102B2FD829
:103BB000FB78194AD35CFB73FB78082B14D87B681D
:103BC0001B6808331846FCF70AFE0346BB73BA7B32
:103BD000FB7B1343BB737B681B680833BA7B1146BE
:103BE0001846FCF7FAFD13E07B681B680C33184697
:103BF000FCF7F5FD0346BB73BA7BFB7B1343BB733A
:103C00007B681B680C33BA7B11461846FCF7E5FD50
:103C100000BF1037BD4680BD8C81000080B584B0E8
:103C200000AF78600B46FB70FB78002B00D100BE24
:103C3000FB78102B00D900BEFB78002B36D0FB7828
:103C4000102B33D8FB781B4AD35CFB73FB78082B13
:103C500016D87B681B6808331846FCF7C0FD03467E
:103C6000BB73FB7BDB43DAB2BB7B1340BB737B686C
:103C70001B680833BA7B11461846FCF7AEFD15E009
:103C80007B681B680C331846FCF7A9FD0346BB7321
:103C9000FB7BDB43DAB2BB7B1340BB737B681B68E7
:103CA0000C33BA7B11461846FCF797FD00BF10375E
:103CB000BD4680BD8C81000080B586B000AFF86045
:103CC0000B467A60FB72FB7A002B00D100BEFB7AB8
:103CD000102B00D900BEFB7A002B3AD0FB7A102BB8
:103CE00037D87B68002B05D1FB7A1946F868FFF7B7
:103CF00095FF2EE0FB681A68FB7A184951F82330CB
:103D0000134400211846FCF738FDFB681A68FB7A5B
:103D1000134951F82330134479681846FCF72DFDF8
:103D2000FB7A0F4A52F823307B61FB681A687B6983
:103D300013441846FCF753FD0346FB747B68DBB263
:103D4000FA7C9A4200D000BEFB7A1946F868FFF769
:103D50001BFF00BF1837BD4680BD00BFA08100001B
:103D6000E481000080B586B000AFF860B96011460C
:103D70001A460B46FB711346BB71BB797B61FCF79E
:103D8000F5FC38616C220021F86803F03BFAFB680F
:103D9000BA681A60FB795A00FB685A60FB681868B9
:103DA000002340220621FCF71CFDFB681868012354
:103DB00040220621FCF715FDFB6818687B699B080B
:103DC00003F0010380220721FCF70BFDFB68186854
:103DD0007B695B0803F0010302220121FCF701FD6E
:103DE000FB6818687B6903F0010301220021FCF7DE
:103DF000F8FCFB681B6803F10C02FB685B68194662
:103E00001046FCF7EAFCFB681B6803F11C02FB6828
:103E10005B6819461046FCF7E0FC3869FCF7AAFC21
:103E200000BF1837BD4680BD80B582B000AF786056
:103E30007B6893F86030002B06D07B6818680123FC
:103E400004220221FCF7CDFC00BF0837BD4680BD2F
:103E500090B585B000AF78600123FB737B681B6869
:103E600004331846FCF7BBFC0346FB72FB7ADBB25B
:103E7000083BD82B00F2478401A252F823F000BF80
:103E8000E541000007470000074700000747000022
:103E900007470000074700000747000007470000EA
:103EA000E541000007470000074700000747000002
:103EB00007470000074700000747000007470000CA
:103EC0009342000007470000074700000747000033
:103ED00007470000074700000747000007470000AA
:103EE0006F42000007470000074700000747000037
:103EF000074700000747000007470000074700008A
:103F000093420000074700000747000007470000F2
:103F10000747000007470000074700000747000069
:103F2000294300000747000007470000074700003B
:103F30000747000007470000074700000747000049
:103F40005F420000074700000747000007470000E6
:103F50000747000007470000074700000747000029
:103F60004D430000074700000747000007470000D7
:103F70000747000007470000074700000747000009
:103F8000A94300000747000007470000074700005B
:103F900007470000074700000747000007470000E9
:103FA000CD43000007470000074700000747000017
:103FB00007470000074700000747000007470000C9
:103FC0000D440000074700000747000007470000B6
:103FD00007470000074700000747000007470000A9
:103FE000AF440000074700000747000007470000F4
:103FF0000747000007470000074700000747000089
:10400000A7440000074700000747000007470000DB
:104010000747000007470000074700000747000068
:10402000AF440000074700000747000007470000B3
:104030000747000007470000074700000747000048
:10404000A74400000747000007470000074700009B
:104050000747000007470000074700000747000028
:10406000F54400000747000007470000074700002D
:104070000747000007470000074700000747000008
:104080006F44000007470000074700000747000093
:1040900007470000074700000747000007470000E8
:1040A000F5440000074700000747000007470000ED
:1040B00007470000074700000747000007470000C8
:1040C0006F44000007470000074700000747000053
:1040D00007470000074700000747000007470000A8
:1040E0005945000007470000074700000747000048
:1040F0000747000007470000074700000747000088
:10410000254600000747000007470000074700005A
:104110000747000007470000074700000747000067
:10412000254600000747000007470000074700003A
:104130000747000007470000074700000747000047
:10414000254600000747000007470000074700001A
:104150000747000007470000074700000747000027
:10416000CB46000007470000074700000747000054
:104170000747000007470000074700000747000007
:10418000CB46000007470000074700000747000034
:1041900007470000074700000747000007470000E7
:1041A00007470000074700000747000007470000D7
:1041B00007470000074700000747000007470000C7
:1041C000FD450000074700000747000007470000C3
:1041D00007470000074700000747000007470000A7
:1041E0004B4700007B681868002320220521FCF75C
:1041F000F8FA7B681B6803F108027B689B68194624
:104200001046FCF7EAFA7B681B6803F108007B683C
:104210005B6A01220021FCF7E4FA7B685B6A002BF1
:1042200003D17B6800221A6202E07B6800221A63D5
:104230007B6893F86930002B03D07B68002283F8F9
:1042400069207B681A7B7B6893F86A309A4200F099
:104250007E827B6893F86A207B681A7377E27B68BA
:104260001868012320220521FCF7BBFA7AE27B685B
:104270001868012310220421FCF7B3FA7B6802229C
:1042800083F834207B6800221A737868FFF7CCFD2E
:1042900068E27B681A6A7B68DB699A4211D27B68A4
:1042A0001B6803F108047B689A697B681B6A581CC9
:1042B0007968086213441B7819462046FCF78DFA8A
:1042C00050E27B681B7B032B0AD17B6801225A6278
:1042D0007B681868012320220521FCF782FA41E25D
:1042E0007B6800221A737B681B7D03F00103BB739C
:1042F0007B68BA7B83F86820BB7B002B0AD17B6884
:104300001868012310220421FCF76BFA7868FFF784
:104310008BFD04E0786800F055FA0023FB737B689E
:10432000002283F834201DE27B68186801231022E4
:104330000421FCF756FA7B68022283F834207B685C
:1043400000221A737868FFF76FFD0BE27B68DB6A67
:10435000012B07D97B681868012304220221FCF78E
:1043600040FAFFE17B68DB6A012B07D17B681868A4
:10437000002304220221FCF734FAF3E17B68186879
:10438000012304220221FCF72CFA7B681868012320
:1043900010220421FCF725FA7B68002283F83420E0
:1043A0007B6800221A73DDE17B6818680123102204
:1043B0000421FCF716FA7B68022283F834207B681C
:1043C00000221A737868FFF72FFDCBE17B689A6AA9
:1043D0007B681B6B581C79680863D4187B681B6862
:1043E00008331846FCF7FBF9034623707B681A6B09
:1043F0007B68DB6A013B9A42C0F0AB817B6818683E
:10440000002304220221FCF7ECF9A2E17B689A6AFE
:104410007B681B6BD4187B681B6808331846FCF755
:10442000DEF9034623707B681B7D03F00103BB7339
:104430007B68BA7B83F86820BB7B002B0AD17B6842
:104440001868012310220421FCF7CBF97868FFF7E4
:10445000EBFC04E0786800F0B5F90023FB737B689F
:1044600000221A737B68002283F834207AE17B688B
:104470001868012304220221FCF7B3F97B680022AB
:104480001A737B68002283F854207B6893F86930A4
:10449000002B00F060817B68186801232022052131
:1044A000FCF79FF957E17B68012283F869207B685C
:1044B00004221A737B6800221A657B6800221A6145
:1044C0007B681B68202205211846FCF798F90346F3
:1044D000002B0AD07B681868002320220521FCF7F6
:1044E00080F97B68012283F869207B68012283F8C8
:1044F000542037E17B689B6C002B1ED07B681A6DC3
:104500007B68DB6C9A4218D27B681B6808331846BC
:10451000FCF765F903467B737B689A6C7B681B6DBF
:10452000581C7968086513447A7B1A707B681B698C
:104530001A027B7B1A447B681A617B681A6D7B6860
:10454000DB6C9A42C0F009817B6818680023042262
:104550000221FCF746F900E17B681B7B042B33D179
:104560007B681A6D7B689B6D9A4203D17B681A69E0
:104570007B685A647B68DB6D002B1DD07B68DB6D2C
:104580007A68916C7A68126D92B27868984703469F
:104590003B733B7B002B03D17868FFF745FC19E0A8
:1045A0007B681868002304220221FCF71AF97B6853
:1045B000002283F860200DE07B6818680123042244
:1045C0000221FCF70EF905E07B6800225A64786846
:1045D000FFF72AFC7B68002283F854207B6893F85D
:1045E0006930002B06D07B68186801232022052142
:1045F000FCF7F7F87B6800221A73B3E07B680022AF
:104600001A737B6800225A647B6893F85430DBB2DB
:10461000012B03D17B68022283F854207868FFF7CE
:1046200003FC9FE0FB7ADBB2A82B1ED17B6805223E
:104630001A737B6800221A617B68012283F8542078
:104640007B681B68202205211846FCF7D8F8034632
:10465000002B0AD07B681868002320220521FCF774
:10466000C0F87B68012283F869207B685A6C7B68FC
:104670001B6C9A4207D37B681B680833FF211846DE
:10468000FCF7ABF810E07B681B6803F108047B685B
:10469000DA6B7B685B6C581C7968486413441B7840
:1046A00019462046FCF799F87B685A6C7B681B6CAE
:1046B0009A4254D37B681868002304220221FCF735
:1046C00090F87B6800225A6449E07B6800225A64B3
:1046D0007B681868012304220221FCF782F87B68BA
:1046E000002283F854207B6893F86930002B06D0B1
:1046F0007B681868012320220521FCF772F87B688B
:1047000000221A732EE07B681868002320220521FE
:10471000FCF767F87B6800221A737B6800225A64F2
:104720007B6893F83430DBB2012B03D17B68022223
:1047300083F834207B6893F85430DBB2012B10D11E
:104740007B68022283F854200BE000BF0AE000BF20
:1047500008E000BF06E000BF04E000BF02E000BFC9
:1047600000E000BFFB7B002B06D07B6818680023AD
:1047700008220321FCF735F87B681B6804331846D0
:10478000FCF72DF80346FB7200BF1437BD4690BD01
:1047900080B483B000AF0346FB71094997F9073035
:1047A0005B09FA7902F01F02012000FA02F22033BD
:1047B00041F8232000BF0C37BD4680BC704700BFC6
:1047C00000E100E080B582B000AF78607B68054A08
:1047D000934202D12220FFF7DBFF00BF0837BD461E
:1047E00080BD00BFD07D002080B586B000AFF860EE
:1047F000B9601346FB710023FB75BB683B61FB6826
:10480000BA681A60FB68FA791A710023FB75BB68F5
:104810003B6109E000213869FBF7DFFF3B690433A6
:104820003B61FB7D0133FB75FB7D1F2BF2D9FB68E0
:104830001B79012B0DD0022B02D0002B1AD036E0B1
:10484000FB681B6880334FF0FF311846FBF795FF7C
:104850002FE0FB681B6880334FF6FF711846FBF7AB
:10486000A4FFFB681B6884334FF6FF711846FBF703
:104870009CFF1EE0FB681B688033FF211846FBF796
:10488000ACFFFB681B688433FF211846FBF7A5FFCC
:10489000FB681B688833FF211846FBF79EFFFB6807
:1048A0001B688C33FF211846FBF797FF01E000BE21
:1048B00000BF00BF1837BD4680BD80B586B000AFD1
:1048C000F8600B467A60FB72FB7A1F2B00D900BEA2
:1048D000FB7A1F2B14D8FB681B687B61FB7A9B005B
:1048E0001A467B6913447B6179687869FBF745FF59
:1048F0007869FBF744FF02467B689A4200D000BE0D
:1049000000BF1837BD4680BD80B586B000AF786067
:104910000B46FB701346BB70FB781F2B00D900BE03
:104920007B681B79012B33D0022B02D0002B6AD07D
:10493000A4E07B681B68A0331846FBF720FF786172
:10494000BB78002B09D1FB78012202FA03F3DB4389
:104950001A467B6913407B6107E0FB78012202FA6B
:1049600003F31A467B6913437B617B681B68A033A2
:1049700079691846FBF701FF7B681B68A03318466E
:10498000FBF7FDFE02467B699A4279D000BE77E0D4
:104990007B681B68FA781209D2B292001344A033E4
:1049A000FB60F868FBF703FF03467B82BB78002BB4
:1049B0000ED1FB7803F00F03012202FA03F31BB2BE
:1049C000DB431AB2B7F9123013401BB27B820BE003
:1049D000FB7803F00F03012202FA03F31AB2B7F9CE
:1049E000123013431BB27B827B8A1946F868FBF7AF
:1049F000DCFEF868FBF7DBFE03461A467B8A93422F
:104A000040D000BE3EE07B681B68FA78D208D2B284
:104A100092001344A033BB60B868FBF7E0FE034686
:104A20007B74BB78002B0ED1FB7803F007030122C7
:104A300002FA03F35BB2DB435AB297F91130134029
:104A40005BB27B740BE0FB7803F00703012202FAF0
:104A500003F35AB297F9113013435BB27B747B7C3A
:104A60001946B868FBF7B9FEB868FBF7B8FE03460D
:104A70001A467B7C934207D000BE05E000BE04E0EE
:104A800000BF02E000BF00E000BF00BF1837BD4616
:104A900080BD80B584B000AF78600B46FB701346D4
:104AA000BB707B681B68FB60FB781F2B00D900BEC6
:104AB000BB78012B04D0022B36D0002B1AD047E054
:104AC000FB78012219467868FFF71EFF7B681B6898
:104AD000FA7892001344FB60F868FBF780FE034607
:104AE000BB60BB6843F00403BB60B968F868FBF7C0
:104AF00074FE2FE0FB78002219467868FFF704FF68
:104B00007B681B68FA7892001344FB60F868FBF737
:104B100066FE0346BB60BB6843F00403BB60B96834
:104B2000F868FBF75AFE15E07B681B68FA7892007C
:104B30001344FB60F868FBF752FE0346BB60BB689A
:104B400023F00403BB60B968F868FBF746FE01E098
:104B500000BE00BF00BF1037BD4680BD80B58AB023
:104B600000AF78600023FB6100F002FF4A4B1B6836
:104B7000002B18D1494B4A4A1A60484B00225A6010
:104B8000484B4FF4F0425A60464B00221A60444BA7
:104B90007B617B694FF4F0425A607B69414A1A603D
:104BA0003D4B01221A607B68002B0ED010231A4661
:104BB0007B6813447B607B6803F00703002B04D001
:104BC0007B6823F0070308337B607B68002B56D09B
:104BD0007B68B3F5F04F52D2304B3B622F4B1B68D2
:104BE0007B6204E07B6A3B627B6A1B687B627B6A58
:104BF0005A687B689A4203D27B6A1B68002BF1D10A
:104C00007B6A284A93423AD03B6A1B6810221344BD
:104C1000FB617B6A1A683B6A1A607B6A5A687B6828
:104C2000D31A10225200934222D97A6A7B68134425
:104C30003B617B6A5A687B68D21A3B695A607B6A1F
:104C40007A685A603B695B68FB60144BBB6102E0A9
:104C5000BB691B68BB61BB691B685A68FB689A42E9
:104C6000F6D3BB691A683B691A60BB693A691A6076
:104C70000D4B1A687B6A5B68D31A0B4A136000F00D
:104C800085FEFB69002B01D101F0E4FFFB691846AA
:104C90002837BD4680BD00BF5879002048790020E4
:104CA00048010020507900202000002080B586B007
:104CB00000AF78607B683B617B68002B27D01023B6
:104CC0005B423A6913443B613B69FB6000F050FE74
:104CD000FB685B68BB60104B7B6102E07B691B6813
:104CE0007B617B691B685A68BB689A42F6D37B6913
:104CF0001A68FB681A607B69FA681A60FB685A6870
:104D0000064B1B681344054A136000F03FFE00BFCA
:104D10001837BD4680BD00BF487900202000002024
:104D200080B485B000AFF860B9607A60FB68043B7E
:104D3000FB60FB684FF080721A60FB68043BFB600D
:104D4000BA68FB681A60FB68043BFB60FB680022E2
:104D50001A60FB68143BFB607A68FB681A60FB68AA
:104D6000203BFB60FB6818461437BD4680BC70478B
:104D7000064B19680868B0E8F00F80F309884FF017
:104D8000000080F311884EF00D0E70475C79002012
:104D900000BF00BF04480068006880F3088862B65E
:104DA00000DF00BF00BF000008ED00E080B500AFED
:104DB0000A4A0A4B1B6843F470031360074A074B07
:104DC0001B6843F07043136000F07AF8044B002234
:104DD0001A60FFF7DFFF0023184680BD20ED00E0DA
:104DE0002400002080B400AF034B4FF080521A60C3
:104DF00000BFBD4680BC704704ED00E080B400AF4A
:104E00004FF0500080F31188044B1B680133034AB4
:104E1000136000BFBD4680BC704700BF2400002067
:104E200080B400AF084B1B68013B074A1360064B78
:104E30001B68002B03D14FF0000080F3118800BFE6
:104E4000BD4680BC704700BF24000020EFF30980FE
:104E50000C4B1A6820E9F00F10602DE908404FF064
:104E6000500080F3118800F0C7FE4FF0000080F37F
:104E70001188BDE8084019680868B0E8F00F80F3B1
:104E8000098870475C79002000BF00BF80B582B000
:104E900000AF0A4B4FF080521A6000237B604FF046
:104EA000500080F3118800F007FE4FF0000080F3FF
:104EB000118800BF0837BD4680BD00BF04ED00E08B
:104EC00080B400AF074A084B1B680849A1FB0313D5
:104ED0009B09013B1360064B07221A6000BFBD46C9
:104EE00080BC704714E000E030000020D34D621019
:104EF00010E000E080B483B000AF78607B6803F11D
:104F000008027B685A607B684FF0FF329A607B68CA
:104F100003F108027B68DA607B6803F108027B68B2
:104F20001A617B6800221A6000BF0C37BD4680BC46
:104F3000704780B483B000AF78607B6800221A614C
:104F400000BF0C37BD4680BC704780B485B000AF51
:104F5000786039607B685B68FB60FB685A683B6817
:104F60005A607B685A683B689A60FB685B683A687D
:104F70009A60FB683A685A607B683A685A603B6896
:104F80007A681A617B681B685A1C7B681A6000BFCC
:104F90001437BD4680BC704780B485B000AF7860E0
:104FA00039603B681B68BB60BB68B3F1FF3F03D14E
:104FB0007B681B69FB600CE07B680833FB6002E0E8
:104FC000FB685B68FB60FB685B681A68BB689A42B9
:104FD000F6D9FB685A683B685A603B685B683A6878
:104FE0009A603B68FA689A60FB683A685A603B6866
:104FF0007A681A617B681B685A1C7B681A6000BF5C
:105000001437BD4680BC704780B485B000AF78606F
:105010007B685B687A6892689A607B689B687A684C
:1050200052685A607B681B69FB60FB685A687B6842
:105030009A4203D17B689A68FB685A607B680022B9
:105040001A61FB681B685A1EFB681A6000BF1437A0
:10505000BD4680BC704780B586B000AF78603960CF
:1050600000237B617B68002B4ED04C20FFF776FD40
:1050700038613B69002B47D07B683A6802FB03F339
:105080000133FB60F868FFF769FD02463B691A606F
:105090003B691B68002B34D03B691A687B68396810
:1050A00001FB03F31A443B695A603B6900229A638F
:1050B0003B691A683B699A603B691A687B68013BE7
:1050C000396801FB03F31A443B69DA603B697A688B
:1050D000DA633B693A681A643B694FF0FF325A64FD
:1050E0003B694FF0FF329A643B6910331846FFF773
:1050F00001FF3B6924331846FFF7FCFE3B697B61E7
:1051000002E03869FFF7D2FD7B69002B04D14FF034
:10511000500080F31188FEE77B6918461837BD46BA
:1051200080BD80B588B000AFF860B9607A603B6040
:105130000023FB61FB68002B04D14FF0500080F38B
:105140001188FEE7BB68002B03D1FB681B6C002BAA
:1051500001D1012300E00023002B04D14FF05000C7
:1051600080F31188FEE7FFF749FEFB689A6BFB6846
:10517000DB6B9A4216D23A68B968F86800F09BF97E
:10518000FB685B6A002B09D0FB682433184600F0EB
:1051900059FE0346012B01D1FFF724FEFFF740FE25
:1051A000012356E07B68002B03D1FFF739FE002373
:1051B0004FE0FB69002B06D107F11403184600F0FD
:1051C00099FE0123FB61FFF72BFE00F0D1FBFFF7F7
:1051D00015FEFB685B6CB3F1FF3F02D1FB68002258
:1051E0005A64FB689B6CB3F1FF3F02D1FB6800225D
:1051F0009A64FFF715FE3A1D07F11403114618468D
:1052000000F096FE0346002B1DD1F86800F035FA39
:105210000346002B11D0FB6810337A6811461846FC
:1052200000F0AEFDF86800F0C7F900F0AFFB0346F0
:10523000002B98D1FFF7D6FD95E7F86800F0BCF990
:1052400000F0A4FB8FE7F86800F0B6F900F09EFBD1
:10525000002318462037BD4680BD80B586B000AF1C
:10526000F860B9607A603B60FB68002B04D14FF0B6
:10527000500080F31188FEE77B68002B04D14FF0CB
:10528000500080F31188FEE7BB68002B03D1FB6858
:105290001B6C002B01D1012300E00023002B04D163
:1052A0004FF0500080F31188FEE700233B614FF080
:1052B000500080F31188FB689A6BFB68DB6B9A42A5
:1052C00021D23A68B968F86800F0F5F8FB689B6C81
:1052D000B3F1FF3F0FD1FB685B6A002B10D0FB6876
:1052E0002433184600F0AEFD0346002B08D07B683F
:1052F00001221A6004E0FB689B6C5A1CFB689A64EC
:1053000001237B6101E000237B614FF0000080F30B
:1053100011887B6918461837BD4680BD80B588B0B6
:1053200000AFF860B9607A603B600023FB61FB6806
:10533000002B04D14FF0500080F31188FEE7BB68CA
:10534000002B03D1FB681B6C002B01D1012300E073
:105350000023002B04D14FF0500080F31188FEE7AA
:10536000FFF74CFDFB689B6B002B3BD0FB68DB68B9
:10537000BB61B968F86800F0F9F83B68002B1CD1F4
:10538000FB689B6B5A1EFB689A63FB681B68002BCB
:1053900004D100F06DFF0246FB685A60FB681B6990
:1053A000002B1BD0FB681033184600F04BFD034662
:1053B000012B13D1FFF716FD10E0FB68BA69DA6024
:1053C000FB685B6A002B09D0FB682433184600F0A9
:1053D00039FD0346002B01D0FFF704FDFFF720FD48
:1053E000012364E07B68002B03D1FFF719FD002344
:1053F0005DE0FB69002B06D107F11003184600F0B1
:1054000079FD0123FB61FFF70BFD00F0B1FAFFF717
:10541000F5FCFB685B6CB3F1FF3F02D1FB68002237
:105420005A64FB689B6CB3F1FF3F02D1FB6800221A
:105430009A64FFF7F5FC3A1D07F110031146184670
:1054400000F076FD0346002B2BD1F86800F000F940
:105450000346002B1FD0FB681B68002B08D1FFF709
:10546000CDFCFB685B68184600F02EFFFFF7D8FC08
:10547000FB6824337A681146184600F081FCF8680E
:1054800000F09AF800F082FA0346002B7FF468AF30
:10549000FFF7A8FC64E7F86800F08EF800F076FAF1
:1054A0005EE7F86800F088F800F070FA002318460C
:1054B0002037BD4680BD80B584B000AFF860B960CC
:1054C0007A60FB681B6C002B0CD1FB681B68002BFF
:1054D00043D1FB685B68184600F050FFFB68002270
:1054E0005A603AE07B68002B19D1FB689868FB682A
:1054F0001B6C1A46B96801F07AFEFB689A68FB6873
:105500001B6C1A44FB689A60FB689A68FB685B68CE
:105510009A4222D3FB681A68FB689A601DE0FB6818
:10552000D868FB681B6C1A46B96801F060FEFB681E
:10553000DA68FB681B6C5B421A44FB68DA60FB6844
:10554000DA68FB681B689A4207D2FB685A68FB68F6
:105550001B6C5B421A44FB68DA60FB689B6B5A1C4D
:10556000FB689A6300BF1037BD4680BD80B582B02E
:1055700000AF786039607B681B68002B18D07B68AF
:10558000DA687B681B6C1A447B68DA607B68DA68CF
:105590007B685B689A4203D37B681A687B68DA6031
:1055A0007B68D9687B681B6C1A46386801F01FFE5F
:1055B00000BF0837BD4680BD80B582B000AF7860BF
:1055C000FFF71CFC12E07B685B6A002B13D07B6842
:1055D0002433184600F036FC0346002B01D000F0BF
:1055E000FBFC7B689B6C5A1E7B689A647B689B6C97
:1055F000002BE8DC00E000BF7B684FF0FF329A64CC
:10560000FFF70EFCFFF7FAFB12E07B681B69002B2B
:1056100013D07B681033184600F014FC0346002BAF
:1056200001D000F0D9FC7B685B6C5A1E7B685A6421
:105630007B685B6C002BE8DC00E000BF7B684FF010
:10564000FF325A64FFF7ECFB00BF0837BD4680BD50
:1056500080B584B000AF7860FFF7D0FB7B689B6BB0
:10566000002B0CBF01230023DBB2FB60FFF7D8FB4C
:10567000FB6818461037BD4680BD80B584B000AFCA
:105680007860FFF7BBFB7B689A6B7B68DB6B9A42A9
:105690000CBF01230023DBB2FB60FFF7C1FBFB68FB
:1056A00018461037BD4680BD80B582B000AF786027
:1056B0003960FFF7A3FB7B685B6CB3F1FF3F02D15E
:1056C0007B6800225A647B689B6CB3F1FF3F02D178
:1056D0007B6800229A64FFF7A3FB7B689B6B002B1F
:1056E00005D17B6824333968184600F081FB78685F
:1056F000FFF762FF00BF0837BD4680BD80B58AB0A6
:1057000002AFF860B9603B601346FB80FB68002B7A
:1057100004D14FF0500080F31188FEE7BB6A092BDB
:1057200004D94FF0500080F31188FEE7FB88396BF5
:10573000184600F05BFDB861BB69002B00F08A8061
:10574000BB691A6BFB8803F18043013B9B00134448
:105750007B617B6923F007037B617B6903F00703AF
:10576000002B04D04FF0500080F31188FEE7FB8837
:1057700000937B6BBA6AB968B86900F04BFC3A6871
:10578000F9687869FFF7CCFA0246BB691A60BB6911
:105790001B6803F00703002B04D04FF0500080F388
:1057A0001188FEE7FB6A002B02D0FB6ABA691A6017
:1057B000FFF724FB334B1B680133324A1360324B33
:1057C0001B68002B09D1304ABB6913602D4B1B6845
:1057D000012B0FD100F058FC0CE02C4B1B68002B68
:1057E00008D1294B1B68DA6ABB6A9A4202D8264A5A
:1057F000BB691360BB69DA6A254B1B689A4203D9FF
:10580000BB69DB6A224A1360224B1A68BB691A64BF
:10581000204B1B6801331F4A1360BB69DA6A1E4BB9
:105820001B689A4203D9BB69DB6A1B4A1360BB69D8
:10583000DA6A13469B0013449B00184A1A44BB695A
:10584000043319461046FFF780FB0123FB61FFF785
:10585000E7FA02E04FF0FF33FB61FB69012B0BD14C
:105860000A4B1B68002B07D0074B1B68DA6ABB6A20
:105870009A4201D2FFF7B6FAFB6918462037BD46B7
:1058800080BD00BF987A00205C790020A87A0020B3
:10589000A07A0020BC7A0020A47A00206079002041
:1058A00080B584B000AF78600023FB607B68002B7C
:1058B00012D000F05DF80D4B1A687B681344BB6092
:1058C0000B4B1B6804331846FFF79EFBB86800F0CB
:1058D00057FC00F05BF8F860FB68002B01D1FFF784
:1058E00081FA00BF1037BD4680BD00BF9C7A002002
:1058F0005C79002080B586B004AF002303930023B9
:105900000293002301930023009300235A22144999
:105910001448FFF7F3FE78607B68012B02D100F09A
:105920006BFD78607B68012B0DD14FF0500080F348
:1059300011880D4B01221A600C4B00221A6001F0F5
:105940007DF9FFF733FA7B68002B04D14FF050004C
:1059500080F31188FEE700BF0837BD4680BD00BF59
:1059600028820000F15F0000A87A00209C7A0020C5
:1059700080B400AF044B1B680133034A136000BFBF
:10598000BD4680BC704700BFAC7A002090B583B0A4
:1059900000AF00237B60374B1B68002B04D14FF016
:1059A000500080F31188FEE7FFF728FA314B1B689F
:1059B000013B304A13602F4B1B68002B52D12E4BFA
:1059C0001B68002B4ED000233B6027E02B4BDB688D
:1059D000DC6804F118031846FFF716FB231D184670
:1059E000FFF712FBE26A264B1B689A4202D9E36A70
:1059F000234A1360E26A13469B0013449B00214A2A
:105A00001344221D11461846FFF79FFAE26A1E4B07
:105A10001B68DB6A9A4201D301233B60174B1B686A
:105A2000002BD3D1194B1B68002B0DD006E000F0E2
:105A300043F8164B1B68013B144A1360134B1B6859
:105A4000002BF4D101233B603B68012B03D0104BAA
:105A50001B68012B06D101237B600D4B00221A60CD
:105A6000FFF7C0F9FFF7DCF97B6818460C37BD4635
:105A700090BD00BFAC7A0020987A0020587A0020B0
:105A8000A47A0020607900205C790020B07A0020A0
:105A9000B47A002080B582B000AFFFF7AFF9054BB4
:105AA0001B687B60FFF7BCF97B6818460837BD466A
:105AB00080BD00BF9C7A002080B584B000AF454B0C
:105AC0001B68002B7CD1444B1B680133424A136096
:105AD000414B1B68002B2BD1404B1B681B68002BD4
